{
  "contractName": "SimpleStorage",
  "abi": [
    {
      "constant": true,
      "inputs": [],
      "name": "storedData",
      "outputs": [
        {
          "name": "",
          "type": "uint256"
        }
      ],
      "payable": false,
      "stateMutability": "view",
      "type": "function"
    },
    {
      "constant": true,
      "inputs": [],
      "name": "storedBool",
      "outputs": [
        {
          "name": "",
          "type": "bool"
        }
      ],
      "payable": false,
      "stateMutability": "view",
      "type": "function"
    },
    {
      "anonymous": false,
      "inputs": [
        {
          "indexed": false,
          "name": "_message",
          "type": "string"
        }
      ],
      "name": "StorageSet",
      "type": "event"
    },
    {
      "constant": false,
      "inputs": [
        {
          "name": "x",
          "type": "uint256"
        }
      ],
      "name": "set",
      "outputs": [],
      "payable": false,
      "stateMutability": "nonpayable",
      "type": "function"
    },
    {
      "constant": false,
      "inputs": [
        {
          "name": "x",
          "type": "bool"
        }
      ],
      "name": "setBool",
      "outputs": [],
      "payable": false,
      "stateMutability": "nonpayable",
      "type": "function"
    }
  ],
  "bytecode": "0x608060405234801561001057600080fd5b5061022b806100206000396000f3fe608060405234801561001057600080fd5b506004361061004c5760003560e01c80631e26fd33146100515780632a1afcd91461008157806360fe47b11461009f578063cefe1833146100cd575b600080fd5b61007f6004803603602081101561006757600080fd5b810190808035151590602001909291905050506100ef565b005b610089610174565b6040518082815260200191505060405180910390f35b6100cb600480360360208110156100b557600080fd5b810190808035906020019092919050505061017a565b005b6100d56101ec565b604051808215151515815260200191505060405180910390f35b80600160006101000a81548160ff0219169083151502179055507f60cdc157ca4737a5d39a0e107532616e7bf6946e615228812c7f9bc9f81797a660405180806020018281038252601c8152602001807f426f6f6c65616e2073746f726564207375636365737366756c6c79210000000081525060200191505060405180910390a150565b60005481565b806000819055507f60cdc157ca4737a5d39a0e107532616e7bf6946e615228812c7f9bc9f81797a66040518080602001828103825260198152602001807f446174612073746f726564207375636365737366756c6c79210000000000000081525060200191505060405180910390a150565b600160009054906101000a900460ff168156fea165627a7a72305820cb66d3084f73b4b5b173e62658ac516691c05aaa265778a945ab0baf19d604f80029",
  "source": "pragma solidity >=0.4.21 <0.6.0;\n\ncontract SimpleStorage {\n    event StorageSet(string _message);\n    \n    uint public storedData;\n    bool public storedBool;\n\n    function set(uint x) public {\n        storedData = x;\n\n        emit StorageSet(\"Data stored successfully!\");\n    }\n\n    function setBool(bool x) public {\n        storedBool = x;\n\n        emit StorageSet(\"Boolean stored successfully!\");\n    }\n}\n",
  "sourcePath": "/mnt/c/Users/samps/projects/truffle/drizzle-events-rimble/contracts/SimpleStorage.sol",
  "compiler": {
    "name": "solc",
    "version": "0.5.8+commit.23d335f2.Emscripten.clang"
  },
  "schemaVersion": "3.0.11",
  "updatedAt": "2019-07-16T12:17:33.400Z",
  "devdoc": {
    "methods": {}
  },
  "userdoc": {
    "methods": {}
  }
}